{
  "_format": "hh-sol-artifact-1",
  "contractName": "NFT",
  "sourceName": "contracts/NFT.sol",
  "abi": [
    {
      "inputs": [
        {
          "internalType": "string",
          "name": "uri_",
          "type": "string"
        }
      ],
      "stateMutability": "payable",
      "type": "constructor"
    },
    {
      "anonymous": false,
      "inputs": [
        {
          "indexed": true,
          "internalType": "address",
          "name": "owner",
          "type": "address"
        },
        {
          "indexed": true,
          "internalType": "address",
          "name": "approved",
          "type": "address"
        },
        {
          "indexed": true,
          "internalType": "uint256",
          "name": "tokenId",
          "type": "uint256"
        }
      ],
      "name": "Approval",
      "type": "event"
    },
    {
      "anonymous": false,
      "inputs": [
        {
          "indexed": true,
          "internalType": "address",
          "name": "owner",
          "type": "address"
        },
        {
          "indexed": true,
          "internalType": "address",
          "name": "operator",
          "type": "address"
        },
        {
          "indexed": false,
          "internalType": "bool",
          "name": "approved",
          "type": "bool"
        }
      ],
      "name": "ApprovalForAll",
      "type": "event"
    },
    {
      "anonymous": false,
      "inputs": [
        {
          "indexed": true,
          "internalType": "address",
          "name": "previousOwner",
          "type": "address"
        },
        {
          "indexed": true,
          "internalType": "address",
          "name": "newOwner",
          "type": "address"
        }
      ],
      "name": "OwnershipTransferred",
      "type": "event"
    },
    {
      "anonymous": false,
      "inputs": [
        {
          "indexed": true,
          "internalType": "address",
          "name": "from",
          "type": "address"
        },
        {
          "indexed": true,
          "internalType": "address",
          "name": "to",
          "type": "address"
        },
        {
          "indexed": true,
          "internalType": "uint256",
          "name": "tokenId",
          "type": "uint256"
        }
      ],
      "name": "Transfer",
      "type": "event"
    },
    {
      "inputs": [
        {
          "internalType": "address",
          "name": "to",
          "type": "address"
        },
        {
          "internalType": "uint256",
          "name": "tokenId",
          "type": "uint256"
        }
      ],
      "name": "approve",
      "outputs": [],
      "stateMutability": "nonpayable",
      "type": "function"
    },
    {
      "inputs": [
        {
          "internalType": "address",
          "name": "owner",
          "type": "address"
        }
      ],
      "name": "balanceOf",
      "outputs": [
        {
          "internalType": "uint256",
          "name": "",
          "type": "uint256"
        }
      ],
      "stateMutability": "view",
      "type": "function"
    },
    {
      "inputs": [
        {
          "internalType": "uint256",
          "name": "_quantity",
          "type": "uint256"
        }
      ],
      "name": "changeMintLimit",
      "outputs": [],
      "stateMutability": "nonpayable",
      "type": "function"
    },
    {
      "inputs": [
        {
          "internalType": "uint256",
          "name": "tokenId",
          "type": "uint256"
        }
      ],
      "name": "getApproved",
      "outputs": [
        {
          "internalType": "address",
          "name": "",
          "type": "address"
        }
      ],
      "stateMutability": "view",
      "type": "function"
    },
    {
      "inputs": [
        {
          "internalType": "address",
          "name": "owner",
          "type": "address"
        },
        {
          "internalType": "address",
          "name": "operator",
          "type": "address"
        }
      ],
      "name": "isApprovedForAll",
      "outputs": [
        {
          "internalType": "bool",
          "name": "",
          "type": "bool"
        }
      ],
      "stateMutability": "view",
      "type": "function"
    },
    {
      "inputs": [],
      "name": "maxMintPerWallet",
      "outputs": [
        {
          "internalType": "uint256",
          "name": "",
          "type": "uint256"
        }
      ],
      "stateMutability": "view",
      "type": "function"
    },
    {
      "inputs": [],
      "name": "maxSupply",
      "outputs": [
        {
          "internalType": "uint256",
          "name": "",
          "type": "uint256"
        }
      ],
      "stateMutability": "view",
      "type": "function"
    },
    {
      "inputs": [
        {
          "internalType": "uint256",
          "name": "quantity_",
          "type": "uint256"
        }
      ],
      "name": "mint",
      "outputs": [],
      "stateMutability": "payable",
      "type": "function"
    },
    {
      "inputs": [
        {
          "internalType": "address",
          "name": "",
          "type": "address"
        }
      ],
      "name": "mintPerWallet",
      "outputs": [
        {
          "internalType": "uint256",
          "name": "",
          "type": "uint256"
        }
      ],
      "stateMutability": "view",
      "type": "function"
    },
    {
      "inputs": [],
      "name": "mintPrice",
      "outputs": [
        {
          "internalType": "uint256",
          "name": "",
          "type": "uint256"
        }
      ],
      "stateMutability": "view",
      "type": "function"
    },
    {
      "inputs": [],
      "name": "name",
      "outputs": [
        {
          "internalType": "string",
          "name": "",
          "type": "string"
        }
      ],
      "stateMutability": "view",
      "type": "function"
    },
    {
      "inputs": [],
      "name": "owner",
      "outputs": [
        {
          "internalType": "address",
          "name": "",
          "type": "address"
        }
      ],
      "stateMutability": "view",
      "type": "function"
    },
    {
      "inputs": [
        {
          "internalType": "uint256",
          "name": "tokenId",
          "type": "uint256"
        }
      ],
      "name": "ownerOf",
      "outputs": [
        {
          "internalType": "address",
          "name": "",
          "type": "address"
        }
      ],
      "stateMutability": "view",
      "type": "function"
    },
    {
      "inputs": [],
      "name": "publicMintEnabled",
      "outputs": [
        {
          "internalType": "bool",
          "name": "",
          "type": "bool"
        }
      ],
      "stateMutability": "view",
      "type": "function"
    },
    {
      "inputs": [],
      "name": "renounceOwnership",
      "outputs": [],
      "stateMutability": "nonpayable",
      "type": "function"
    },
    {
      "inputs": [
        {
          "internalType": "address",
          "name": "from",
          "type": "address"
        },
        {
          "internalType": "address",
          "name": "to",
          "type": "address"
        },
        {
          "internalType": "uint256",
          "name": "tokenId",
          "type": "uint256"
        }
      ],
      "name": "safeTransferFrom",
      "outputs": [],
      "stateMutability": "nonpayable",
      "type": "function"
    },
    {
      "inputs": [
        {
          "internalType": "address",
          "name": "from",
          "type": "address"
        },
        {
          "internalType": "address",
          "name": "to",
          "type": "address"
        },
        {
          "internalType": "uint256",
          "name": "tokenId",
          "type": "uint256"
        },
        {
          "internalType": "bytes",
          "name": "_data",
          "type": "bytes"
        }
      ],
      "name": "safeTransferFrom",
      "outputs": [],
      "stateMutability": "nonpayable",
      "type": "function"
    },
    {
      "inputs": [
        {
          "internalType": "address",
          "name": "operator",
          "type": "address"
        },
        {
          "internalType": "bool",
          "name": "approved",
          "type": "bool"
        }
      ],
      "name": "setApprovalForAll",
      "outputs": [],
      "stateMutability": "nonpayable",
      "type": "function"
    },
    {
      "inputs": [
        {
          "internalType": "bool",
          "name": "state_",
          "type": "bool"
        }
      ],
      "name": "setPublicMintEnabled",
      "outputs": [],
      "stateMutability": "nonpayable",
      "type": "function"
    },
    {
      "inputs": [
        {
          "internalType": "address",
          "name": "walletAddress",
          "type": "address"
        }
      ],
      "name": "setWithdrawWallet",
      "outputs": [],
      "stateMutability": "nonpayable",
      "type": "function"
    },
    {
      "inputs": [
        {
          "internalType": "bytes4",
          "name": "interfaceId",
          "type": "bytes4"
        }
      ],
      "name": "supportsInterface",
      "outputs": [
        {
          "internalType": "bool",
          "name": "",
          "type": "bool"
        }
      ],
      "stateMutability": "view",
      "type": "function"
    },
    {
      "inputs": [],
      "name": "symbol",
      "outputs": [
        {
          "internalType": "string",
          "name": "",
          "type": "string"
        }
      ],
      "stateMutability": "view",
      "type": "function"
    },
    {
      "inputs": [
        {
          "internalType": "uint256",
          "name": "tokenId_",
          "type": "uint256"
        }
      ],
      "name": "tokenURI",
      "outputs": [
        {
          "internalType": "string",
          "name": "",
          "type": "string"
        }
      ],
      "stateMutability": "view",
      "type": "function"
    },
    {
      "inputs": [],
      "name": "totalMinted",
      "outputs": [
        {
          "internalType": "uint256",
          "name": "",
          "type": "uint256"
        }
      ],
      "stateMutability": "view",
      "type": "function"
    },
    {
      "inputs": [
        {
          "internalType": "address",
          "name": "from",
          "type": "address"
        },
        {
          "internalType": "address",
          "name": "to",
          "type": "address"
        },
        {
          "internalType": "uint256",
          "name": "tokenId",
          "type": "uint256"
        }
      ],
      "name": "transferFrom",
      "outputs": [],
      "stateMutability": "nonpayable",
      "type": "function"
    },
    {
      "inputs": [
        {
          "internalType": "address",
          "name": "newOwner",
          "type": "address"
        }
      ],
      "name": "transferOwnership",
      "outputs": [],
      "stateMutability": "nonpayable",
      "type": "function"
    },
    {
      "inputs": [],
      "name": "withdraw",
      "outputs": [],
      "stateMutability": "nonpayable",
      "type": "function"
    },
    {
      "inputs": [],
      "name": "withdrawWallet",
      "outputs": [
        {
          "internalType": "address payable",
          "name": "",
          "type": "address"
        }
      ],
      "stateMutability": "view",
      "type": "function"
    }
  ],
  "bytecode": "0x608060405260405162003dd738038062003dd7833981810160405281019062000029919062000360565b6040518060400160405280600981526020017f4379626572626f747300000000000000000000000000000000000000000000008152506040518060400160405280600381526020017f43425400000000000000000000000000000000000000000000000000000000008152508160009080519060200190620000ad9291906200023e565b508060019080519060200190620000c69291906200023e565b505050620000e9620000dd6200017060201b60201c565b6200017860201b60201c565b66038d7ea4c680006007819055506000600881905550600a6009819055506002600a8190555080600c9080519060200190620001279291906200023e565b5033600d60006101000a81548173ffffffffffffffffffffffffffffffffffffffff021916908373ffffffffffffffffffffffffffffffffffffffff1602179055505062000515565b600033905090565b6000600660009054906101000a900473ffffffffffffffffffffffffffffffffffffffff16905081600660006101000a81548173ffffffffffffffffffffffffffffffffffffffff021916908373ffffffffffffffffffffffffffffffffffffffff1602179055508173ffffffffffffffffffffffffffffffffffffffff168173ffffffffffffffffffffffffffffffffffffffff167f8be0079c531659141344cd1fd0a4f28419497f9722a3daafe3b4186f6b6457e060405160405180910390a35050565b8280546200024c906200043a565b90600052602060002090601f016020900481019282620002705760008555620002bc565b82601f106200028b57805160ff1916838001178555620002bc565b82800160010185558215620002bc579182015b82811115620002bb5782518255916020019190600101906200029e565b5b509050620002cb9190620002cf565b5090565b5b80821115620002ea576000816000905550600101620002d0565b5090565b600062000305620002ff84620003ce565b620003a5565b9050828152602081018484840111156200031e57600080fd5b6200032b84828562000404565b509392505050565b600082601f8301126200034557600080fd5b815162000357848260208601620002ee565b91505092915050565b6000602082840312156200037357600080fd5b600082015167ffffffffffffffff8111156200038e57600080fd5b6200039c8482850162000333565b91505092915050565b6000620003b1620003c4565b9050620003bf828262000470565b919050565b6000604051905090565b600067ffffffffffffffff821115620003ec57620003eb620004d5565b5b620003f78262000504565b9050602081019050919050565b60005b838110156200042457808201518184015260208101905062000407565b8381111562000434576000848401525b50505050565b600060028204905060018216806200045357607f821691505b602082108114156200046a5762000469620004a6565b5b50919050565b6200047b8262000504565b810181811067ffffffffffffffff821117156200049d576200049c620004d5565b5b80604052505050565b7f4e487b7100000000000000000000000000000000000000000000000000000000600052602260045260246000fd5b7f4e487b7100000000000000000000000000000000000000000000000000000000600052604160045260246000fd5b6000601f19601f8301169050919050565b6138b280620005256000396000f3fe6080604052600436106101b75760003560e01c8063818668d7116100ec578063a2309ff81161008a578063c87b56dd11610064578063c87b56dd146105d7578063d5abeb0114610614578063e985e9c51461063f578063f2fde38b1461067c576101b7565b8063a2309ff814610558578063b228d92514610583578063b88d4fde146105ae576101b7565b80639373f432116100c65780639373f432146104bf57806395d89b41146104e8578063a0712d6814610513578063a22cb4651461052f576101b7565b8063818668d71461044057806385d178f4146104695780638da5cb5b14610494576101b7565b806334259b5c116101595780636352211e116101335780636352211e146103845780636817c76c146103c157806370a08231146103ec578063715018a614610429576101b7565b806334259b5c1461031b5780633ccfd60b1461034457806342842e0e1461035b576101b7565b8063095ea7b311610195578063095ea7b3146102615780630f4161aa1461028a57806313413cd2146102b557806323b872dd146102f2576101b7565b806301ffc9a7146101bc57806306fdde03146101f9578063081812fc14610224575b600080fd5b3480156101c857600080fd5b506101e360048036038101906101de91906125f9565b6106a5565b6040516101f09190612bbd565b60405180910390f35b34801561020557600080fd5b5061020e610787565b60405161021b9190612bd8565b60405180910390f35b34801561023057600080fd5b5061024b6004803603810190610246919061264b565b610819565b6040516102589190612b3b565b60405180910390f35b34801561026d57600080fd5b5061028860048036038101906102839190612594565b61089e565b005b34801561029657600080fd5b5061029f6109b6565b6040516102ac9190612bbd565b60405180910390f35b3480156102c157600080fd5b506102dc60048036038101906102d79190612429565b6109c9565b6040516102e99190612e9a565b60405180910390f35b3480156102fe57600080fd5b506103196004803603810190610314919061248e565b6109e1565b005b34801561032757600080fd5b50610342600480360381019061033d919061264b565b610a41565b005b34801561035057600080fd5b50610359610ac7565b005b34801561036757600080fd5b50610382600480360381019061037d919061248e565b610c14565b005b34801561039057600080fd5b506103ab60048036038101906103a6919061264b565b610c34565b6040516103b89190612b3b565b60405180910390f35b3480156103cd57600080fd5b506103d6610ce6565b6040516103e39190612e9a565b60405180910390f35b3480156103f857600080fd5b50610413600480360381019061040e9190612429565b610cec565b6040516104209190612e9a565b60405180910390f35b34801561043557600080fd5b5061043e610da4565b005b34801561044c57600080fd5b50610467600480360381019061046291906125d0565b610e2c565b005b34801561047557600080fd5b5061047e610ec5565b60405161048b9190612b56565b60405180910390f35b3480156104a057600080fd5b506104a9610eeb565b6040516104b69190612b3b565b60405180910390f35b3480156104cb57600080fd5b506104e660048036038101906104e19190612429565b610f15565b005b3480156104f457600080fd5b506104fd610fd5565b60405161050a9190612bd8565b60405180910390f35b61052d6004803603810190610528919061264b565b611067565b005b34801561053b57600080fd5b5061055660048036038101906105519190612558565b6112d5565b005b34801561056457600080fd5b5061056d6112eb565b60405161057a9190612e9a565b60405180910390f35b34801561058f57600080fd5b506105986112f1565b6040516105a59190612e9a565b60405180910390f35b3480156105ba57600080fd5b506105d560048036038101906105d091906124dd565b6112f7565b005b3480156105e357600080fd5b506105fe60048036038101906105f9919061264b565b611359565b60405161060b9190612bd8565b60405180910390f35b34801561062057600080fd5b506106296113d5565b6040516106369190612e9a565b60405180910390f35b34801561064b57600080fd5b5061066660048036038101906106619190612452565b6113db565b6040516106739190612bbd565b60405180910390f35b34801561068857600080fd5b506106a3600480360381019061069e9190612429565b61146f565b005b60007f80ac58cd000000000000000000000000000000000000000000000000000000007bffffffffffffffffffffffffffffffffffffffffffffffffffffffff1916827bffffffffffffffffffffffffffffffffffffffffffffffffffffffff1916148061077057507f5b5e139f000000000000000000000000000000000000000000000000000000007bffffffffffffffffffffffffffffffffffffffffffffffffffffffff1916827bffffffffffffffffffffffffffffffffffffffffffffffffffffffff1916145b80610780575061077f82611567565b5b9050919050565b6060600080546107969061314b565b80601f01602080910402602001604051908101604052809291908181526020018280546107c29061314b565b801561080f5780601f106107e45761010080835404028352916020019161080f565b820191906000526020600020905b8154815290600101906020018083116107f257829003601f168201915b5050505050905090565b6000610824826115d1565b610863576040517f08c379a000000000000000000000000000000000000000000000000000000000815260040161085a90612dba565b60405180910390fd5b6004600083815260200190815260200160002060009054906101000a900473ffffffffffffffffffffffffffffffffffffffff169050919050565b60006108a982610c34565b90508073ffffffffffffffffffffffffffffffffffffffff168373ffffffffffffffffffffffffffffffffffffffff16141561091a576040517f08c379a000000000000000000000000000000000000000000000000000000000815260040161091190612dfa565b60405180910390fd5b8073ffffffffffffffffffffffffffffffffffffffff1661093961163d565b73ffffffffffffffffffffffffffffffffffffffff16148061096857506109678161096261163d565b6113db565b5b6109a7576040517f08c379a000000000000000000000000000000000000000000000000000000000815260040161099e90612d3a565b60405180910390fd5b6109b18383611645565b505050565b600b60009054906101000a900460ff1681565b600e6020528060005260406000206000915090505481565b6109f26109ec61163d565b826116fe565b610a31576040517f08c379a0000000000000000000000000000000000000000000000000000000008152600401610a2890612e1a565b60405180910390fd5b610a3c8383836117dc565b505050565b610a4961163d565b73ffffffffffffffffffffffffffffffffffffffff16610a67610eeb565b73ffffffffffffffffffffffffffffffffffffffff1614610abd576040517f08c379a0000000000000000000000000000000000000000000000000000000008152600401610ab490612dda565b60405180910390fd5b80600a8190555050565b610acf61163d565b73ffffffffffffffffffffffffffffffffffffffff16610aed610eeb565b73ffffffffffffffffffffffffffffffffffffffff1614610b43576040517f08c379a0000000000000000000000000000000000000000000000000000000008152600401610b3a90612dda565b60405180910390fd5b6000600d60009054906101000a900473ffffffffffffffffffffffffffffffffffffffff1673ffffffffffffffffffffffffffffffffffffffff1647604051610b8b90612b26565b60006040518083038185875af1925050503d8060008114610bc8576040519150601f19603f3d011682016040523d82523d6000602084013e610bcd565b606091505b5050905080610c11576040517f08c379a0000000000000000000000000000000000000000000000000000000008152600401610c0890612e7a565b60405180910390fd5b50565b610c2f838383604051806020016040528060008152506112f7565b505050565b6000806002600084815260200190815260200160002060009054906101000a900473ffffffffffffffffffffffffffffffffffffffff169050600073ffffffffffffffffffffffffffffffffffffffff168173ffffffffffffffffffffffffffffffffffffffff161415610cdd576040517f08c379a0000000000000000000000000000000000000000000000000000000008152600401610cd490612d7a565b60405180910390fd5b80915050919050565b60075481565b60008073ffffffffffffffffffffffffffffffffffffffff168273ffffffffffffffffffffffffffffffffffffffff161415610d5d576040517f08c379a0000000000000000000000000000000000000000000000000000000008152600401610d5490612d5a565b60405180910390fd5b600360008373ffffffffffffffffffffffffffffffffffffffff1673ffffffffffffffffffffffffffffffffffffffff168152602001908152602001600020549050919050565b610dac61163d565b73ffffffffffffffffffffffffffffffffffffffff16610dca610eeb565b73ffffffffffffffffffffffffffffffffffffffff1614610e20576040517f08c379a0000000000000000000000000000000000000000000000000000000008152600401610e1790612dda565b60405180910390fd5b610e2a6000611a43565b565b610e3461163d565b73ffffffffffffffffffffffffffffffffffffffff16610e52610eeb565b73ffffffffffffffffffffffffffffffffffffffff1614610ea8576040517f08c379a0000000000000000000000000000000000000000000000000000000008152600401610e9f90612dda565b60405180910390fd5b80600b60006101000a81548160ff02191690831515021790555050565b600d60009054906101000a900473ffffffffffffffffffffffffffffffffffffffff1681565b6000600660009054906101000a900473ffffffffffffffffffffffffffffffffffffffff16905090565b610f1d61163d565b73ffffffffffffffffffffffffffffffffffffffff16610f3b610eeb565b73ffffffffffffffffffffffffffffffffffffffff1614610f91576040517f08c379a0000000000000000000000000000000000000000000000000000000008152600401610f8890612dda565b60405180910390fd5b80600d60006101000a81548173ffffffffffffffffffffffffffffffffffffffff021916908373ffffffffffffffffffffffffffffffffffffffff16021790555050565b606060018054610fe49061314b565b80601f01602080910402602001604051908101604052809291908181526020018280546110109061314b565b801561105d5780601f106110325761010080835404028352916020019161105d565b820191906000526020600020905b81548152906001019060200180831161104057829003601f168201915b5050505050905090565b600b60009054906101000a900460ff166110b6576040517f08c379a00000000000000000000000000000000000000000000000000000000081526004016110ad90612c3a565b60405180910390fd5b600954816008546110c79190612f6e565b1115611108576040517f08c379a00000000000000000000000000000000000000000000000000000000081526004016110ff90612d1a565b60405180910390fd5b611110610eeb565b73ffffffffffffffffffffffffffffffffffffffff163373ffffffffffffffffffffffffffffffffffffffff16146112315761115261114d610eeb565b611b09565b600754816111609190612ff5565b34146111a1576040517f08c379a000000000000000000000000000000000000000000000000000000000815260040161119890612bfa565b60405180910390fd5b600a5481600e60003373ffffffffffffffffffffffffffffffffffffffff1673ffffffffffffffffffffffffffffffffffffffff168152602001908152602001600020546111ef9190612f6e565b1115611230576040517f08c379a000000000000000000000000000000000000000000000000000000000815260040161122790612e3a565b60405180910390fd5b5b6000600190505b8181116112d157600e60003373ffffffffffffffffffffffffffffffffffffffff1673ffffffffffffffffffffffffffffffffffffffff168152602001908152602001600020600081548092919061128f906131ae565b9190505550600860008154809291906112a7906131ae565b9190505550600060085490506112bd3382611ba2565b5080806112c9906131ae565b915050611238565b5050565b6112e76112e061163d565b8383611bc0565b5050565b60085481565b600a5481565b61130861130261163d565b836116fe565b611347576040517f08c379a000000000000000000000000000000000000000000000000000000000815260040161133e90612e1a565b60405180910390fd5b61135384848484611d2d565b50505050565b6060611364826115d1565b6113a3576040517f08c379a000000000000000000000000000000000000000000000000000000000815260040161139a90612e5a565b60405180910390fd5b600c6113ae83611d89565b6040516020016113bf929190612af7565b6040516020818303038152906040529050919050565b60095481565b6000600560008473ffffffffffffffffffffffffffffffffffffffff1673ffffffffffffffffffffffffffffffffffffffff16815260200190815260200160002060008373ffffffffffffffffffffffffffffffffffffffff1673ffffffffffffffffffffffffffffffffffffffff16815260200190815260200160002060009054906101000a900460ff16905092915050565b61147761163d565b73ffffffffffffffffffffffffffffffffffffffff16611495610eeb565b73ffffffffffffffffffffffffffffffffffffffff16146114eb576040517f08c379a00000000000000000000000000000000000000000000000000000000081526004016114e290612dda565b60405180910390fd5b600073ffffffffffffffffffffffffffffffffffffffff168173ffffffffffffffffffffffffffffffffffffffff16141561155b576040517f08c379a000000000000000000000000000000000000000000000000000000000815260040161155290612c5a565b60405180910390fd5b61156481611a43565b50565b60007f01ffc9a7000000000000000000000000000000000000000000000000000000007bffffffffffffffffffffffffffffffffffffffffffffffffffffffff1916827bffffffffffffffffffffffffffffffffffffffffffffffffffffffff1916149050919050565b60008073ffffffffffffffffffffffffffffffffffffffff166002600084815260200190815260200160002060009054906101000a900473ffffffffffffffffffffffffffffffffffffffff1673ffffffffffffffffffffffffffffffffffffffff1614159050919050565b600033905090565b816004600083815260200190815260200160002060006101000a81548173ffffffffffffffffffffffffffffffffffffffff021916908373ffffffffffffffffffffffffffffffffffffffff160217905550808273ffffffffffffffffffffffffffffffffffffffff166116b883610c34565b73ffffffffffffffffffffffffffffffffffffffff167f8c5be1e5ebec7d5bd14f71427d1e84f3dd0314c0f7b2291e5b200ac8c7c3b92560405160405180910390a45050565b6000611709826115d1565b611748576040517f08c379a000000000000000000000000000000000000000000000000000000000815260040161173f90612cfa565b60405180910390fd5b600061175383610c34565b90508073ffffffffffffffffffffffffffffffffffffffff168473ffffffffffffffffffffffffffffffffffffffff161480611795575061179481856113db565b5b806117d357508373ffffffffffffffffffffffffffffffffffffffff166117bb84610819565b73ffffffffffffffffffffffffffffffffffffffff16145b91505092915050565b8273ffffffffffffffffffffffffffffffffffffffff166117fc82610c34565b73ffffffffffffffffffffffffffffffffffffffff1614611852576040517f08c379a000000000000000000000000000000000000000000000000000000000815260040161184990612c7a565b60405180910390fd5b600073ffffffffffffffffffffffffffffffffffffffff168273ffffffffffffffffffffffffffffffffffffffff1614156118c2576040517f08c379a00000000000000000000000000000000000000000000000000000000081526004016118b990612cba565b60405180910390fd5b6118cd838383611f36565b6118d8600082611645565b6001600360008573ffffffffffffffffffffffffffffffffffffffff1673ffffffffffffffffffffffffffffffffffffffff1681526020019081526020016000206000828254611928919061304f565b925050819055506001600360008473ffffffffffffffffffffffffffffffffffffffff1673ffffffffffffffffffffffffffffffffffffffff168152602001908152602001600020600082825461197f9190612f6e565b92505081905550816002600083815260200190815260200160002060006101000a81548173ffffffffffffffffffffffffffffffffffffffff021916908373ffffffffffffffffffffffffffffffffffffffff160217905550808273ffffffffffffffffffffffffffffffffffffffff168473ffffffffffffffffffffffffffffffffffffffff167fddf252ad1be2c89b69c2b068fc378daa952ba7f163c4a11628f55a4df523b3ef60405160405180910390a4611a3e838383611f3b565b505050565b6000600660009054906101000a900473ffffffffffffffffffffffffffffffffffffffff16905081600660006101000a81548173ffffffffffffffffffffffffffffffffffffffff021916908373ffffffffffffffffffffffffffffffffffffffff1602179055508173ffffffffffffffffffffffffffffffffffffffff168173ffffffffffffffffffffffffffffffffffffffff167f8be0079c531659141344cd1fd0a4f28419497f9722a3daafe3b4186f6b6457e060405160405180910390a35050565b611b9f81604051602401611b1d9190612b3b565b6040516020818303038152906040527f2c2ecbc2000000000000000000000000000000000000000000000000000000007bffffffffffffffffffffffffffffffffffffffffffffffffffffffff19166020820180517bffffffffffffffffffffffffffffffffffffffffffffffffffffffff8381831617835250505050611f40565b50565b611bbc828260405180602001604052806000815250611f69565b5050565b8173ffffffffffffffffffffffffffffffffffffffff168373ffffffffffffffffffffffffffffffffffffffff161415611c2f576040517f08c379a0000000000000000000000000000000000000000000000000000000008152600401611c2690612cda565b60405180910390fd5b80600560008573ffffffffffffffffffffffffffffffffffffffff1673ffffffffffffffffffffffffffffffffffffffff16815260200190815260200160002060008473ffffffffffffffffffffffffffffffffffffffff1673ffffffffffffffffffffffffffffffffffffffff16815260200190815260200160002060006101000a81548160ff0219169083151502179055508173ffffffffffffffffffffffffffffffffffffffff168373ffffffffffffffffffffffffffffffffffffffff167f17307eab39ab6107e8899845ad3d59bd9653f200f220920489ca2b5937696c3183604051611d209190612bbd565b60405180910390a3505050565b611d388484846117dc565b611d4484848484611fc4565b611d83576040517f08c379a0000000000000000000000000000000000000000000000000000000008152600401611d7a90612c1a565b60405180910390fd5b50505050565b60606000821415611dd1576040518060400160405280600181526020017f30000000000000000000000000000000000000000000000000000000000000008152509050611f31565b600082905060005b60008214611e03578080611dec906131ae565b915050600a82611dfc9190612fc4565b9150611dd9565b60008167ffffffffffffffff811115611e45577f4e487b7100000000000000000000000000000000000000000000000000000000600052604160045260246000fd5b6040519080825280601f01601f191660200182016040528015611e775781602001600182028036833780820191505090505b5090505b60008514611f2a57600182611e90919061304f565b9150600a85611e9f91906131f7565b6030611eab9190612f6e565b60f81b818381518110611ee7577f4e487b7100000000000000000000000000000000000000000000000000000000600052603260045260246000fd5b60200101907effffffffffffffffffffffffffffffffffffffffffffffffffffffffffffff1916908160001a905350600a85611f239190612fc4565b9450611e7b565b8093505050505b919050565b505050565b505050565b60008151905060006a636f6e736f6c652e6c6f679050602083016000808483855afa5050505050565b611f73838361215b565b611f806000848484611fc4565b611fbf576040517f08c379a0000000000000000000000000000000000000000000000000000000008152600401611fb690612c1a565b60405180910390fd5b505050565b6000611fe58473ffffffffffffffffffffffffffffffffffffffff16612335565b1561214e578373ffffffffffffffffffffffffffffffffffffffff1663150b7a0261200e61163d565b8786866040518563ffffffff1660e01b81526004016120309493929190612b71565b602060405180830381600087803b15801561204a57600080fd5b505af192505050801561207b57506040513d601f19601f820116820180604052508101906120789190612622565b60015b6120fe573d80600081146120ab576040519150601f19603f3d011682016040523d82523d6000602084013e6120b0565b606091505b506000815114156120f6576040517f08c379a00000000000000000000000000000000000000000000000000000000081526004016120ed90612c1a565b60405180910390fd5b805181602001fd5b63150b7a0260e01b7bffffffffffffffffffffffffffffffffffffffffffffffffffffffff1916817bffffffffffffffffffffffffffffffffffffffffffffffffffffffff191614915050612153565b600190505b949350505050565b600073ffffffffffffffffffffffffffffffffffffffff168273ffffffffffffffffffffffffffffffffffffffff1614156121cb576040517f08c379a00000000000000000000000000000000000000000000000000000000081526004016121c290612d9a565b60405180910390fd5b6121d4816115d1565b15612214576040517f08c379a000000000000000000000000000000000000000000000000000000000815260040161220b90612c9a565b60405180910390fd5b61222060008383611f36565b6001600360008473ffffffffffffffffffffffffffffffffffffffff1673ffffffffffffffffffffffffffffffffffffffff16815260200190815260200160002060008282546122709190612f6e565b92505081905550816002600083815260200190815260200160002060006101000a81548173ffffffffffffffffffffffffffffffffffffffff021916908373ffffffffffffffffffffffffffffffffffffffff160217905550808273ffffffffffffffffffffffffffffffffffffffff16600073ffffffffffffffffffffffffffffffffffffffff167fddf252ad1be2c89b69c2b068fc378daa952ba7f163c4a11628f55a4df523b3ef60405160405180910390a461233160008383611f3b565b5050565b6000808273ffffffffffffffffffffffffffffffffffffffff163b119050919050565b600061236b61236684612eda565b612eb5565b90508281526020810184848401111561238357600080fd5b61238e848285613109565b509392505050565b6000813590506123a581613820565b92915050565b6000813590506123ba81613837565b92915050565b6000813590506123cf8161384e565b92915050565b6000815190506123e48161384e565b92915050565b600082601f8301126123fb57600080fd5b813561240b848260208601612358565b91505092915050565b60008135905061242381613865565b92915050565b60006020828403121561243b57600080fd5b600061244984828501612396565b91505092915050565b6000806040838503121561246557600080fd5b600061247385828601612396565b925050602061248485828601612396565b9150509250929050565b6000806000606084860312156124a357600080fd5b60006124b186828701612396565b93505060206124c286828701612396565b92505060406124d386828701612414565b9150509250925092565b600080600080608085870312156124f357600080fd5b600061250187828801612396565b945050602061251287828801612396565b935050604061252387828801612414565b925050606085013567ffffffffffffffff81111561254057600080fd5b61254c878288016123ea565b91505092959194509250565b6000806040838503121561256b57600080fd5b600061257985828601612396565b925050602061258a858286016123ab565b9150509250929050565b600080604083850312156125a757600080fd5b60006125b585828601612396565b92505060206125c685828601612414565b9150509250929050565b6000602082840312156125e257600080fd5b60006125f0848285016123ab565b91505092915050565b60006020828403121561260b57600080fd5b6000612619848285016123c0565b91505092915050565b60006020828403121561263457600080fd5b6000612642848285016123d5565b91505092915050565b60006020828403121561265d57600080fd5b600061266b84828501612414565b91505092915050565b61267d81613095565b82525050565b61268c81613083565b82525050565b61269b816130a7565b82525050565b60006126ac82612f20565b6126b68185612f36565b93506126c6818560208601613118565b6126cf816132e4565b840191505092915050565b60006126e582612f2b565b6126ef8185612f52565b93506126ff818560208601613118565b612708816132e4565b840191505092915050565b600061271e82612f2b565b6127288185612f63565b9350612738818560208601613118565b80840191505092915050565b600081546127518161314b565b61275b8186612f63565b945060018216600081146127765760018114612787576127ba565b60ff198316865281860193506127ba565b61279085612f0b565b60005b838110156127b257815481890152600182019150602081019050612793565b838801955050505b50505092915050565b60006127d0601083612f52565b91506127db826132f5565b602082019050919050565b60006127f3603283612f52565b91506127fe8261331e565b604082019050919050565b6000612816601383612f52565b91506128218261336d565b602082019050919050565b6000612839602683612f52565b915061284482613396565b604082019050919050565b600061285c602583612f52565b9150612867826133e5565b604082019050919050565b600061287f601c83612f52565b915061288a82613434565b602082019050919050565b60006128a2602483612f52565b91506128ad8261345d565b604082019050919050565b60006128c5601983612f52565b91506128d0826134ac565b602082019050919050565b60006128e8602c83612f52565b91506128f3826134d5565b604082019050919050565b600061290b600883612f52565b915061291682613524565b602082019050919050565b600061292e603883612f52565b91506129398261354d565b604082019050919050565b6000612951602a83612f52565b915061295c8261359c565b604082019050919050565b6000612974602983612f52565b915061297f826135eb565b604082019050919050565b6000612997602083612f52565b91506129a28261363a565b602082019050919050565b60006129ba602c83612f52565b91506129c582613663565b604082019050919050565b60006129dd600583612f63565b91506129e8826136b2565b600582019050919050565b6000612a00602083612f52565b9150612a0b826136db565b602082019050919050565b6000612a23602183612f52565b9150612a2e82613704565b604082019050919050565b6000612a46600083612f47565b9150612a5182613753565b600082019050919050565b6000612a69603183612f52565b9150612a7482613756565b604082019050919050565b6000612a8c601383612f52565b9150612a97826137a5565b602082019050919050565b6000612aaf601583612f52565b9150612aba826137ce565b602082019050919050565b6000612ad2600f83612f52565b9150612add826137f7565b602082019050919050565b612af1816130ff565b82525050565b6000612b038285612744565b9150612b0f8284612713565b9150612b1a826129d0565b91508190509392505050565b6000612b3182612a39565b9150819050919050565b6000602082019050612b506000830184612683565b92915050565b6000602082019050612b6b6000830184612674565b92915050565b6000608082019050612b866000830187612683565b612b936020830186612683565b612ba06040830185612ae8565b8181036060830152612bb281846126a1565b905095945050505050565b6000602082019050612bd26000830184612692565b92915050565b60006020820190508181036000830152612bf281846126da565b905092915050565b60006020820190508181036000830152612c13816127c3565b9050919050565b60006020820190508181036000830152612c33816127e6565b9050919050565b60006020820190508181036000830152612c5381612809565b9050919050565b60006020820190508181036000830152612c738161282c565b9050919050565b60006020820190508181036000830152612c938161284f565b9050919050565b60006020820190508181036000830152612cb381612872565b9050919050565b60006020820190508181036000830152612cd381612895565b9050919050565b60006020820190508181036000830152612cf3816128b8565b9050919050565b60006020820190508181036000830152612d13816128db565b9050919050565b60006020820190508181036000830152612d33816128fe565b9050919050565b60006020820190508181036000830152612d5381612921565b9050919050565b60006020820190508181036000830152612d7381612944565b9050919050565b60006020820190508181036000830152612d9381612967565b9050919050565b60006020820190508181036000830152612db38161298a565b9050919050565b60006020820190508181036000830152612dd3816129ad565b9050919050565b60006020820190508181036000830152612df3816129f3565b9050919050565b60006020820190508181036000830152612e1381612a16565b9050919050565b60006020820190508181036000830152612e3381612a5c565b9050919050565b60006020820190508181036000830152612e5381612a7f565b9050919050565b60006020820190508181036000830152612e7381612aa2565b9050919050565b60006020820190508181036000830152612e9381612ac5565b9050919050565b6000602082019050612eaf6000830184612ae8565b92915050565b6000612ebf612ed0565b9050612ecb828261317d565b919050565b6000604051905090565b600067ffffffffffffffff821115612ef557612ef46132b5565b5b612efe826132e4565b9050602081019050919050565b60008190508160005260206000209050919050565b600081519050919050565b600081519050919050565b600082825260208201905092915050565b600081905092915050565b600082825260208201905092915050565b600081905092915050565b6000612f79826130ff565b9150612f84836130ff565b9250827fffffffffffffffffffffffffffffffffffffffffffffffffffffffffffffffff03821115612fb957612fb8613228565b5b828201905092915050565b6000612fcf826130ff565b9150612fda836130ff565b925082612fea57612fe9613257565b5b828204905092915050565b6000613000826130ff565b915061300b836130ff565b9250817fffffffffffffffffffffffffffffffffffffffffffffffffffffffffffffffff048311821515161561304457613043613228565b5b828202905092915050565b600061305a826130ff565b9150613065836130ff565b92508282101561307857613077613228565b5b828203905092915050565b600061308e826130df565b9050919050565b60006130a0826130df565b9050919050565b60008115159050919050565b60007fffffffff0000000000000000000000000000000000000000000000000000000082169050919050565b600073ffffffffffffffffffffffffffffffffffffffff82169050919050565b6000819050919050565b82818337600083830152505050565b60005b8381101561313657808201518184015260208101905061311b565b83811115613145576000848401525b50505050565b6000600282049050600182168061316357607f821691505b6020821081141561317757613176613286565b5b50919050565b613186826132e4565b810181811067ffffffffffffffff821117156131a5576131a46132b5565b5b80604052505050565b60006131b9826130ff565b91507fffffffffffffffffffffffffffffffffffffffffffffffffffffffffffffffff8214156131ec576131eb613228565b5b600182019050919050565b6000613202826130ff565b915061320d836130ff565b92508261321d5761321c613257565b5b828206905092915050565b7f4e487b7100000000000000000000000000000000000000000000000000000000600052601160045260246000fd5b7f4e487b7100000000000000000000000000000000000000000000000000000000600052601260045260246000fd5b7f4e487b7100000000000000000000000000000000000000000000000000000000600052602260045260246000fd5b7f4e487b7100000000000000000000000000000000000000000000000000000000600052604160045260246000fd5b6000601f19601f8301169050919050565b7f77726f6e67206d696e742076616c756500000000000000000000000000000000600082015250565b7f4552433732313a207472616e7366657220746f206e6f6e20455243373231526560008201527f63656976657220696d706c656d656e7465720000000000000000000000000000602082015250565b7f6d696e74696e67206e6f7420656e61626c656400000000000000000000000000600082015250565b7f4f776e61626c653a206e6577206f776e657220697320746865207a65726f206160008201527f6464726573730000000000000000000000000000000000000000000000000000602082015250565b7f4552433732313a207472616e736665722066726f6d20696e636f72726563742060008201527f6f776e6572000000000000000000000000000000000000000000000000000000602082015250565b7f4552433732313a20746f6b656e20616c7265616479206d696e74656400000000600082015250565b7f4552433732313a207472616e7366657220746f20746865207a65726f2061646460008201527f7265737300000000000000000000000000000000000000000000000000000000602082015250565b7f4552433732313a20617070726f766520746f2063616c6c657200000000000000600082015250565b7f4552433732313a206f70657261746f7220717565727920666f72206e6f6e657860008201527f697374656e7420746f6b656e0000000000000000000000000000000000000000602082015250565b7f736f6c64206f7574000000000000000000000000000000000000000000000000600082015250565b7f4552433732313a20617070726f76652063616c6c6572206973206e6f74206f7760008201527f6e6572206e6f7220617070726f76656420666f7220616c6c0000000000000000602082015250565b7f4552433732313a2062616c616e636520717565727920666f7220746865207a6560008201527f726f206164647265737300000000000000000000000000000000000000000000602082015250565b7f4552433732313a206f776e657220717565727920666f72206e6f6e657869737460008201527f656e7420746f6b656e0000000000000000000000000000000000000000000000602082015250565b7f4552433732313a206d696e7420746f20746865207a65726f2061646472657373600082015250565b7f4552433732313a20617070726f76656420717565727920666f72206e6f6e657860008201527f697374656e7420746f6b656e0000000000000000000000000000000000000000602082015250565b7f2e6a736f6e000000000000000000000000000000000000000000000000000000600082015250565b7f4f776e61626c653a2063616c6c6572206973206e6f7420746865206f776e6572600082015250565b7f4552433732313a20617070726f76616c20746f2063757272656e74206f776e6560008201527f7200000000000000000000000000000000000000000000000000000000000000602082015250565b50565b7f4552433732313a207472616e736665722063616c6c6572206973206e6f74206f60008201527f776e6572206e6f7220617070726f766564000000000000000000000000000000602082015250565b7f6d696e74206c696d697420657863656564656400000000000000000000000000600082015250565b7f546f6b656e20646f6573206e6f74206578697374210000000000000000000000600082015250565b7f7769746864726177206661696c65640000000000000000000000000000000000600082015250565b61382981613083565b811461383457600080fd5b50565b613840816130a7565b811461384b57600080fd5b50565b613857816130b3565b811461386257600080fd5b50565b61386e816130ff565b811461387957600080fd5b5056fea26469706673582212203b14196ba4645fc4cbbd4e67f549d4ed685044bfc9770c79166157016f2c3e2064736f6c63430008040033",
  "linkReferences": {},
  "deployedLinkReferences": {}
}